:020000040800F2
:100000000000022009240008052400089DC2000801
:10001000052400080524000805240008000000004D
:10002000000000000000000000000000052400089F
:1000300005240008000000000524000821C2000873
:1000400005240008052400080524000805240008EC
:1000500005240008052400080524000805240008DC
:10006000052400080524000805240008B1AF000895
:10007000BDAF00085D9E0008C9AF0008D5AF0008FD
:10008000418A0108DDA400080524000805240008B1
:10009000052400080524000805240008052400089C
:1000A000052400080524000805240008052400088C
:1000B0006D7E0108797E0108857E010811A5000882
:1000C000052400081DA500080524000889BB0008B8
:1000D00095BB000875880108A1880108D58801082A
:1000E000052400080524000800000000052400087D
:1000F000052400080524000805240008052400083C
:100100000524000859B20108917E0108A1BB00082E
:10011000098901083D890108052400080524000813
:100120000524000805240008C5BB0008F9BB000829
:10013000758A010805240008052400080524000824
:1001400000000000000000000000000000000000AF
:100150000524000805240008052400087189010809
:1001600029A500080524000831C2000855C200086E
:100170000524000879C200080524000805240008A9
:100180000524000805240008A5890108D98901086B
:10019000ADBB0008B9BB0008052400080524000811
:1001A000052400080524000805240008052400088B
:1001B000D1AC000805240008052400080524000827
:1001C000052400080524000829980008359800082F
:1001D00005240008419800080524000805240008AB
:1001E000052400080524000805240008052400084B
:1001F000052400080524000805240008052400083B
:10020000052400080524000805240008052400082A
:10021000052400080524000805240008052400081A
:10022000052400080524000805240008000000003B
:10023000052400080524000800000000052400082B
:1002400005240008052400080524000805240008EA
:1002500005240008052400080524000805240008DA
:1002600005240008052400080524000805240008CA
:1002700005240008052400080D8A0108000000007C
:1002800005240008052400080524000800000000DB
:08029000000000000524000835
:1002A0000348044B834202D0034B03B11847704705
:1002B0002C0400242C0400240000000005480649FA
:1002C0000B1AD90F01EBA301491002D0034B03B164
:1002D000184770472C0400242C0400240000000060
:1002E00010B5064C237843B9FFF7DAFF044B13B17E
:1002F0000448AFF300800123237010BD30040024B4
:100300000000000084C7010808B5044B1BB1044974
:100310000448AFF30080BDE80840CFE700000000CC
:100320003404002484C7010838B510EE104AC4F321
:100330000A53B3F57D7FB7EEC07A1ED227EE077B56
:10034000B3F5667F6FD327EE071B634B93ED142B3A
:1003500093ED125B93ED0E3BA7EE025B93ED0C0B5E
:1003600093ED104BA7EE030B27EE017BA1EE040BE0
:10037000A5EE070BB7EEC00B38BD40F22E429342FC
:1003800054D8554991ED086B27EE066BFDEEC66B10
:1003900091ED0A5B16EE903A03F500031B1613F07D
:1003A000020F06EE903A01F1700208BF0A46D80724
:1003B000B8EEE66BA6EE457B27EE076B1AD503F089
:1003C000030301EBC30393ED002B92ED1A4B92ED67
:1003D000185B92ED163BA6EE045B27EE027B27EE40
:1003E000064B26EE046BA4EE037BA5EE067BB7EE70
:1003F000C70B38BD92ED142B92ED127B92ED0E3BA4
:1004000092ED0C0B92ED104B26EE065BA6EE027BF6
:10041000A6EE030B26EE056BA5EE040BA7EE060B6E
:10042000B7EEC00B38BDB7EE000A38BDB3F5FF6FAD
:100430003DD22A4BC4F3836203EB820153F822209E
:100440000D69C4F31603C4F3C25043F400038340A0
:10045000086A03FB02F2A3FB0010E3FB050202F1B2
:1004600000518D0F01F04041511A01F0C9FD1C4BA4
:100470009FED177B05EBD47441EC160B14F0020FC3
:10048000A3F1700208BF1346E90726EE077B27EEAB
:10049000076B10D504F0030402EBC40494ED002BA9
:1004A00093ED1A4B93ED185B93ED163B93E7BDE884
:1004B000384000F053B893ED142B93ED127B93ED7D
:1004C0000E3B93ED0C0B93ED104B9DE7AFF30080CB
:1004D000182D4454FB21193C38B70108D8B601083F
:1004E000A8B7010810B582B08DED010A044600F0EE
:1004F000F3FA9DED010A046002B010BD28B1F1EEDF
:10050000407A27EE800A2220ECE7F0EE407A27EED0
:10051000800A2220E6E700BF9FED010AEEE700BF58
:10052000000000109FED010AE8E700BF0000201A5C
:100530009FED010AE2E700BF000000709FED060A90
:10054000FFEE007AB7EE007A00284FF0220047FE57
:10055000277A87EE800AC5E70000000070EE407A37
:10056000B4EE400A87EEA77AF1EE10FAB0EE470A31
:1005700001D62120B6E7704730B410EE103A2DEDC9
:10058000028BA3F5000110EE902AB1F1FE4F10EEA0
:10059000104A82B04FEA42017ED201F1FF3C6FF077
:1005A0008070844580F0F980002004F1404303F519
:1005B0004D03C3F3C341DB0DDB05E21ADB1507EE88
:1005C000903ABFEE001BB24B03EB011191ED004BD3
:1005D00005EE102AB7EEC55AA4EE051B93ED444B69
:1005E00021EE012B93ED465B93ED403BA1EE045BC6
:1005F00093ED426B93ED484BA1EE036B22EE023B71
:10060000B8EEE78BB7EEE07A91ED020B38EE000B17
:10061000A1EE040BA2EE050BA6EE030B27EE000BDA
:1006200010EE903A48F2BF02C3F3CF33934252D256
:10063000B7EE007B974B93ED402B30EE023B13EE71
:10064000102A33EE423B02F01F01821803EBC10077
:1006500053F83140456830EE433B93ED465B93EDF4
:10066000424BA3EE057BB0EE470B93ED446B0023AA
:10067000181905EBC23141EC170BA3EE046B23EE06
:10068000034BA6EE040B20EE070BB7EEC00B02B037
:10069000BDEC028B30BC70474D1E6FF08070854200
:1006A00080F0CE8059004D1E854280F09280002B54
:1006B00055DB0020B4F5000FBFF477AFDFED767A9D
:1006C00007EE103A67EE277A17EE904A24F00044BE
:1006D000A4F1386469E79FED667BB4EEC70BF1EED9
:1006E00010FA15DC9FED647BB4EEC70BF1EE10FA47
:1006F00020DD4FF04C5388B10193DDED017ABFEE60
:10070000007A77EE677AF4EE477AF1EE10FA11D0BC
:1007100002B0BDEC028B30BCFFF70ABF0093DDEDE9
:10072000007AB7EE007A77EE877AF4EE477AF1EE48
:1007300010FAEDD19FED527BB4EEC70BF1EE10FA3B
:1007400057D99FED517BB4EEC70BF1EE10FA7FF550
:100750006FAF02B0BDEC028B30BCFFF7E3BEC2F35B
:10076000C7517E2911DD962954DC0120C1F1960183
:1007700000FA01F1481E104207D111EA020018BF29
:100780004FF4803024F0004494E700EE103A02B0B9
:10079000BDEC028B30BCFFF7E1BE002952D0B3F1B3
:1007A0007E5F2CD06400B4F17F4F2ED8B1F17F4F23
:1007B0002BD1B4F1FE4F4BD0B4F1FE4F6FEA0202E1
:1007C00034BF00240124D20F94424CD09FED330A51
:1007D0005DE7002B20EE000A1EDB002000293AD145
:1007E000002ABFF654AF02B0BDEC028B30BCFFF75D
:1007F000A5BE02B0BDEC028B30BCFFF78DBE82F40B
:100800008002520012F5000F22D907EE903A37EE1F
:10081000A00A3CE70020B5E7C2F3C753A3F17F006D
:100820001728DAD8C3F19600012303FA00F0441E1A
:100830001442D2D11040D1D0B1EE400A1846CDE7D3
:100840000029AFD184F48002520012F5000FDCD8E9
:10085000B7EE000A1BE7002ABFF619AFF7EE007AE1
:1008600087EE800A13E720EEA00A10E7AFF30080BE
:1008700071D5D1FFFFFF5F40E2AAA3FFFFFF5F40FA
:100880000000000000C062C00000000000A062C0C4
:10089000B0B5010818B801080000004B00000000C6
:1008A00030B510EE104AC4F30A53B3F57D7FB7EEAE
:1008B000C06A83B01BD226EE065BB3F5667F70D3A9
:1008C00026EE052B25EE021B754B93ED1A3B93ED9F
:1008D000187B93ED164BA5EE037BA2EE046BB0EEF6
:1008E000460BA7EE010BB7EEC00B03B030BD40F2D4
:1008F0002E42934260D86A4991ED087B26EE077B31
:10090000FDEEC77B91ED0A5B17EE903A03F500030D
:100910001B1613F0020F07EE903A01F1700208BFA8
:100920000A46D807B8EEE77BA7EE456BB0EE460B5C
:1009300026EE067B1BD403F0030301EBC30392ED09
:100940001A5B93ED003B92ED186B20EE030B92EDDA
:10095000164BA7EE056B20EE075B27EE057BA5EE99
:10096000040BA6EE070BB7EEC00B03B030BD92ED43
:10097000142B27EE075B92ED126B92ED0E3BA7EE68
:10098000026B92ED0C0B92ED104BA7EE030B27EED2
:10099000057BA5EE040BA6EE070BB7EEC00B03B06C
:1009A00030BD220D12F4FF6FDFD1B7EEC55B00EE54
:1009B000104A8DED015AD8E7B3F5FF6F4BD2394B92
:1009C000C4F3836203EB820153F822200D69C4F360
:1009D0001603C4F3C25043F400038340086A03FBC8
:1009E00002F2A3FB0010E3FB050202F100518D0FA0
:1009F00001F04041511A01F003FB2B4B9FED267B88
:100A000005EBD47441EC160B14F0020FA3F1700245
:100A100008BF1346E90726EE077B27EE076B1FD4B6
:100A200004F0030402EBC40493ED1A4B94ED002B85
:100A300093ED185B27EE027B93ED163BA6EE045B6D
:100A400027EE064B26EE046BA4EE037BA5EE067B99
:100A5000B7EEC70B89E703B0BDE83040FFF77EBDB6
:100A600093ED142B26EE065B93ED127B93ED0E3B7C
:100A7000A6EE027B93ED0C0B93ED104BA6EE030B51
:100A800026EE056BA5EE040BA7EE060BB7EEC00B2A
:100A90006BE700BFAFF30080182D4454FB21193CD5
:100AA00038B70108D8B60108A8B7010808B506206C
:100AB00000F016FB012001F071FC00BF10B5054CE1
:100AC00034B113460A460146022000F045FC10BD31
:100AD000204610BD59130008014B1868704700BF2D
:100AE0000400002470B50D4E0D4D761BB61006D0D7
:100AF000002455F8043B01349847A642F9D1094E29
:100B0000094D761B1BF032FEB61006D0002455F8B6
:100B1000043B01349847A642F9D170BD8CC7010847
:100B20008CC70108B8C701088CC70108024B0146F1
:100B3000186800F0D5B900BF04000024024B01463C
:100B4000186800F06BB900BF04000024844641EA35
:100B5000000313F003036DD1403A41D351F8043B35
:100B600040F8043B51F8043B40F8043B51F8043B87
:100B700040F8043B51F8043B40F8043B51F8043B77
:100B800040F8043B51F8043B40F8043B51F8043B67
:100B900040F8043B51F8043B40F8043B51F8043B57
:100BA00040F8043B51F8043B40F8043B51F8043B47
:100BB00040F8043B51F8043B40F8043B51F8043B37
:100BC00040F8043B51F8043B40F8043B51F8043B27
:100BD00040F8043B51F8043B40F8043B403ABDD296
:100BE000303211D351F8043B40F8043B51F8043B38
:100BF00040F8043B51F8043B40F8043B51F8043BF7
:100C000040F8043B103AEDD20C3205D351F8043BC6
:100C100040F8043B043AF9D2043208D0D2071CBF92
:100C200011F8013B00F8013B01D30B8803806046BB
:100C3000704700BF082A13D38B078DD010F0030331
:100C40008AD0C3F10403D21ADB071CBF11F8013BA1
:100C500000F8013B80D331F8023B20F8023B7BE7F0
:100C6000043AD9D3013A11F8013B00F8013BF9D21B
:100C70000B7803704B7843708B78837060467047B5
:100C800088420DD98B1883420AD900EB020CBAB105
:100C9000624613F801CD02F801CD9942F9D17047AF
:100CA0000F2A0ED8034602F1FF3C4AB10CF1010CA9
:100CB000013B8C4411F8012B03F8012F6145F9D158
:100CC000704740EA01039B0750D1A2F1100370B5B1
:100CD00001F1200C23F00F0501F1100E00F11004BA
:100CE000AC441B095EF8105C44F8105C5EF80C5CC8
:100CF00044F80C5C5EF8085C44F8085C5EF8045C40
:100D000044F8045C0EF1100EE64504F11004E9D13C
:100D1000013312F00C0F01EB031102F00F0400EB92
:100D2000031327D0043C24F003064FEA940C1E441E
:100D30001C1F8E465EF8045B44F8045FB442F9D190
:100D40000CF1010402F0030203EB840301EB8401C4
:100D500002F1FF3C4AB10CF1010C013B8C4411F84B
:100D6000012B03F8012F6145F9D170BD02F1FF3C61
:100D700003469BE72246EBE7830730B548D0541E75
:100D8000002A3FD0CAB2034601E0013C3AD303F83F
:100D9000012B9D07F9D1032C2DD9CDB245EA0525AC
:100DA0000F2C45EA054536D9A4F1100222F00F0CAC
:100DB00003F1200EE6444FEA121C03F1100242E94F
:100DC000045542E9025510327245F8D10CF1010286
:100DD00014F00C0F03EB021204F00F0C13D0ACF163
:100DE000040323F003030433134442F8045B9342E7
:100DF000FBD10CF003042CB1CAB21C4403F8012B44
:100E00009C42FBD130BD64461346002CF4D1F9E777
:100E100003461446BFE71A46A446E0E7002958D027
:100E200030B551F8043C83B0002BA1F10404B8BFE5
:100E3000E418019000F0E6FA284A0198136833B1EB
:100E4000A3420DD9216804EB010C63452FD06360E8
:100E5000146003B0BDE8304000F0D6BAA34210D809
:100E60001A465B68002BF9D1116802EB010C64454E
:100E700019D02FD36360546003B0BDE8304000F058
:100E8000C3BA116802EB010CA44516D022D8216820
:100E900004EB010C6345EDD11D685B682944C4E98E
:100EA00000135460D5E7236819441160D1E71D6829
:100EB0005B682944C4E90013CAE724682144541834
:100EC000A3421160C5D1D3E900432144C2E9001314
:100ED000BFE770470C230360BBE700BF4C0400244E
:100EE000F8B5CD1C25F0030508350C2D38BF0C25B1
:100EF000002D064623DBA94221D8254F00F082FAB7
:100F00003A6822B3144603E063682246FBB11C46EC
:100F100023685B1BF8D40B2B15D8636894420CBF75
:100F20003B605360304600F06FFA04F10B00231D64
:100F300020F00700C21A01D01B1AA350F8BD0C23E1
:100F400033600020F8BD23601C442560EAE779681F
:100F5000C9B12946304600F01DF8431C0CD0C41C12
:100F600024F00304A04205D0211A304600F012F804
:100F7000013001D02560D5E70C233046336000F006
:100F800043FA0020F8BD304600F004F87860E0E74E
:100F90004C04002438B5074D0022044608462A6058
:100FA00001F0EEF9431C00D038BD2B68002BFBD0BC
:100FB000236038BDEC05002438B5446C0CB100202A
:100FC00038BD80210546FFF78BFF0246686430B1CB
:100FD000031F7C3243F8044F9342FBD1EFE74FF0FD
:100FE000FF3038BD1F29F8B5054608D8466C0C46B9
:100FF00017464EB156F8240046F82470F8BD162363
:1010000003604FF0FF30F8BD8021FFF769FF06460F
:10101000686440B1031F00F17C05002143F8041F00
:101020009D42FBD1E6E74FF0FF30F8BD1F2938B5F0
:10103000054620D8426C0C466AB152F8213053B1B3
:10104000012B16D0591C10D00025204642F8245000
:101050009847284638BD284600F0F8F82246014651
:101060002846BDE8384000F0DBB8162303600120B5
:1010700038BD002038BD162303604FF0FF3038BD67
:101080001F292AD8426C38B50C46054682B152F861
:10109000243002EB84024BB1591C19D0012B15D01E
:1010A0000025204615609847284638BD012038BDE8
:1010B0008021FFF715FF0246686458B1031F002125
:1010C0007C3043F8041F9842FBD1E0E7032038BD91
:1010D000022038BD4FF0FF3038BD4FF0FF30704771
:1010E00038B5144B1F281D681FD86A6C044662B1BE
:1010F00052F820304BB1012B15D0591C0FD00025D0
:1011000042F820509847284638BD284600F09EF8FF
:10111000224601462846BDE8384000F081B8162333
:101120002B60012038BD002038BD16232B604FF006
:10113000FF3038BD04000024124B1F2870B51E6814
:1011400008D80D46716C044649B151F8240041F8A5
:10115000245070BD162333604FF0FF3070BD8021E6
:101160003046FFF7BDFE0146706440B1031F00F139
:101170007C0C002243F8042F6345FBD1E5E74FF0D8
:10118000FF3070BD0400002438B50B4B1D686C6C3B
:101190000CB1002038BD80212846FFF7A1FE68640D
:1011A00038B1031F00F17C0243F8044F9342FBD196
:1011B000EFE74FF0FF3038BD0400002438B5174B7F
:1011C0001F281D6826D86A6C044682B152F8243064
:1011D00002EB84024BB1591C1AD0012B16D000250A
:1011E000204615609847284638BD012038BD80212B
:1011F0002846FFF775FE0246686458B1031F0021B8
:101200007C3043F8041F8342FBD1DFE7032038BD65
:10121000022038BD4FF0FF3038BD00BF040000246D
:1012200070B50C46084D03460026204611461C4664
:101230002E6001F09DF8431C00D070BD2B68002B80
:10124000FBD0236070BD00BFEC05002401F088B81E
:1012500008B410B5002A9DB0044633DB4FF4027386
:10126000ADF814300291069120AB17D0013A4FF639
:10127000FF7104920792ADF816101F9A019302A90C
:1012800000F0A2F9421C01DA8B232360029B0022AA
:101290001A701DB0BDE8104001B070474FF6FF71E5
:1012A00004920792ADF816101F9A019302A900F05C
:1012B0008BF9431C01DA8B2323601DB0BDE810407D
:1012C00001B070478B2303604FF0FF30F5E700BF9C
:1012D0000CB410B51F4B00291C689CB035DB4FF4D3
:1012E0000273ADF81430029006901FAB18D001398C
:1012F0004FF6FF7204910791ADF8162002A91E9ACD
:101300000193204600F060F9421C01DA8B23236030
:10131000029B00221A701CB0BDE8104002B070475A
:101320004FF6FF7204910791ADF8162002A91E9A9C
:101330000193204600F048F9431C01DA8B23236017
:101340001CB0BDE8104002B070478B2323604FF003
:10135000FF30F5E704000024F0B5264C256885B081
:10136000064605B36C681F2C41DCA6B1D5F8880091
:1013700048B3D0F8007140F824204FF0010C0CFA6B
:1013800004FC00EB84024CEA0707022EC0F800714F
:10139000C2F8803010D0A31C01346C6045F82310D3
:1013A000002005B0F0BD1448144D25600028D9D0A8
:1013B0000068C5F88800D5E7D0F8043143EA0C038B
:1013C000C0F80431E7E70E480191CDE9022370B17E
:1013D0004FF48470FFF7AAFB48B10027C0E94077BB
:1013E000DDE902236C680199C5F88800C3E74FF076
:1013F000FF30D6E7E805002460B901085C05002449
:101400002D0B0008704700BF704700BF2DE9F04763
:101410008F689F420C461D46164638D882468889FA
:1014200010F4906F0ED108683D462A463146FFF70A
:1014300027FCA2682368D21B2B44A26023600020F3
:10144000BDE8F0874B69096903EB4308236808EBA3
:10145000D878A3EB01096B1C4FEA68084B4443455D
:10146000424684BF98464246430513D5114650462E
:10147000FFF736FD074608B321694A46FFF766FBCA
:10148000A38923F4906343F08003A38107E00868F5
:101490001F46CAE7504600F0F3FB074650B107EB82
:1014A0000900A8EB09032761C4F81480A360206039
:1014B0002F46BAE721695046FFF7B0FC0C23CAF863
:1014C0000030A38943F040034FF0FF30A381B7E71A
:1014D0002DE9F04F936883B09146002B6ED01768CA
:1014E0008D6880460C460868083744E0A38913F4E9
:1014F000906F2ED0D4E90415A0EB010A05EB450549
:1015000005EBD5750AEB06006D100130A8422A469E
:1015100084BF05462A465B0537D511464046FFF78E
:10152000DFFC00283BD0524621690190FFF70EFBFB
:10153000A289019B22F4906242F08002A281A5EB75
:101540000A0203EB0A006561A26023612060354650
:10155000B24659465246FFF793FBA068D9F80810E7
:101560002368451B8E1B03EB0A00A5602060C9F8A9
:1015700008601EB3083757E902B6002EFAD0B5420C
:10158000AA46B3D93546B246E3E7404600F078FBB9
:1015900003460028D3D121694046FFF73FFC0C23C6
:1015A000C8F80030A389002243F040034FF0FF3019
:1015B000A381C9E9012203B0BDE8F08F0020C9F87A
:1015C000040003B0BDE8F08F2DE9F04F92468A8900
:1015D00015069DB0884681461C4603D50A69002A37
:1015E00000F0EF80002209929AF800307E4D0394BB
:1015F00020228DF8292030228DF82A200126002B68
:1016000072D0544603E014F8013F002B76D0252B0E
:10161000F9D1B4EB0A0B74D12278002A64D00023EC
:101620004FF0FF32CDE90523049307938DF8533033
:101630001A93013404E0049A06FA03F31343049363
:10164000A246052214F8011B284600F0C9FA431BE4
:101650000028F0D1049BD80644BF20228DF85320E7
:1016600019079AF8001044BF2B228DF853202A291D
:1016700054D1039A11680432002903927CDB07914C
:101680009AF801100AF1010A2E2959D0574C032269
:10169000204600F0A5FA40B1049B001B402404FA48
:1016A00000F0034304930AF1010A1AF8011B5048A1
:1016B0008DF82810062200F093FA002862D04D4BD6
:1016C000002B52D003AA00924B4B424604A9484635
:1016D000AFF3008007467A1C06D0099B3B44099370
:1016E0009AF80030002B8CD1B8F80C305B0654BF50
:1016F00009984FF0FF301DB0BDE8F08FB4EB0A0B36
:10170000F2D05B46524641464846FFF77FFE013025
:10171000EAD0099B22785B4409937EE7A1F130026D
:10172000092AB1D8079B1AF8011F03EB830302EBC8
:101730004303A1F13002092AF5D92E290793A5D137
:101740009AF801102A2927D1039B9AF802101A68E7
:1017500005920433002A0AF102000393B8BF4FF048
:10176000FF338246B8BF059390E7039B073323F00E
:10177000070308330393B0E7494243F0020307919C
:1017800004937DE703AA00921B4B424604A94846F6
:1017900000F0CAF807469EE7A1F130020023092AAB
:1017A00005930AF1010A3FF671AF1AF8011F03EB26
:1017B000830302EB4303A1F13002092AF5D9059313
:1017C00064E74021FFF78CFBC8F80000C8F8100060
:1017D00018B14022C8F8142004E70C23C9F80030DF
:1017E0004FF0FF3087E700BF30C7010838C7010856
:1017F0003CC70108000000000D1400082DE9F84F57
:1018000092461F460A698B68DDF828909A42B8BF55
:101810001A46CAF8002091F843300C46064613B128
:101820000132CAF80020226891065DD5DAF800304E
:101830000233CAF80030226812F0060F11461ED19A
:10184000E168CB1A002BD8BF114618DD04F1190B43
:101850004FF0000805E0E568DAF80030ED1A45457C
:101860000CDD01235A4639463046C847013008F19D
:101870000108F0D14FF0FF30BDE8F88F216894F8EF
:101880004330003B18BF01238A060AD5E1185A1CD1
:10189000302081F84300224494F8451082F8431028
:1018A000023304F1430239463046C8470130E1D0E3
:1018B000236803F00603042B1DD0A368226993421A
:1018C00025DD4FF000089B1A98441A34002501E0EA
:1018D00045451CDA0123224639463046C8470130C7
:1018E00005F10105F4D1C5E712F0060F12D0003B57
:1018F00018BF0123D5E7DAF80030E1682269C91A78
:10190000A368934221EAE178DDDC0029DDDC0020D8
:10191000BDE8F88FE168DAF80030CB1A002BD8BFA9
:10192000114693DCABE700BF2DE9F0470C4684B0CD
:101930009046227E0C990746994604F14300002AFE
:1019400033D0A2F15803DDB2202D67D8202B65D803
:10195000DFE813F0DE0064006400640064006400EB
:1019600064006400640064006400A3006E0064000E
:101970006400640064006E0064006400640064003D
:1019800021007F00C00064006400AE0064007F009E
:1019900064006400E50023681A0640F104810B68C6
:1019A00062691D1D0D601B681A6000238246236159
:1019B000CDF80090434603AA21463846FFF71EFFA4
:1019C000013020D02369524641463846C84701308D
:1019D00019D02368E068039E9B0719D5831B002B51
:1019E00016DD04F1190A002504E0E068039E831B5C
:1019F000AB420DDD0123524641463846C84701300F
:101A000005F10105F1D14FF0FF3004B0BDE8F087DA
:101A1000B042B8BF304604B0BDE8F087012384F877
:101A20004220236104F1420A002384F84330BFE7D7
:101A300023681A0602D45E0600F1C1800D682A6888
:101A400004350D601546002A6BDBDFF884C10A26D9
:101A500010E023681D0640F19C800B681D1D0D6081
:101A60001D68DFF86CC16F2A0CBF08260A26002308
:101A700084F843306268A260002A7FDB236823F089
:101A800004032360002D5BD1002A79D18246082E01
:101A900065D0A0EB0A0020618AE70B680122186874
:101AA00004330B6004F1420A84F842002261BBE770
:101AB0000B686268181D0860D3F800A0002150462A
:101AC00000F08EF8002800F08180A0EB0A00606032
:101AD0002061A9E7236843F0200323607822DFF820
:101AE000F4C084F845200A68151D0D601D0643D416
:101AF000590641D51588DE0744BF43F02003236013
:101B0000002D44D1236823F0200323601026AEE784
:101B1000582384F84530DFF8B8C02368E3E723682A
:101B2000DCE76268A2602D21002AC5F1000584F877
:101B3000431002DB23F004032360DFF894C00A267D
:101B40008246B5FBF6F306FB13512A461CF801103A
:101B50000AF8011DB2421D46F3D2082E99D123681E
:101B6000D90796D5626823699A4292DC30230AF835
:101B7000013C0AF1FF3A8CE71568BCE7002DDFD184
:101B80009CF8003084F8423004F1420A7FE71026C6
:101B90006DE713F0400F0B6803F104050D600CBFF7
:101BA0001D681D885DE713F0400F0B68626903F143
:101BB00004050D601B6814BF1A801A60F5E60A68F8
:101BC000B2F9005004320A602A463CE760687FE7B9
:101BD00044C7010858C701080000000000000000C9
:101BE00001F0FF01102A2BDB10F0070F08D010F8CE
:101BF000013B013A8B422DD010F0070F42B3F6D1D2
:101C0000F0B441EA012141EA014122F007047FF0EA
:101C100000070023F0E80256083C85EA010586EA41
:101C2000010685FA47F5A3FA87F586FA47F6A5FA7D
:101C300087F68EB9EED1F0BC01F0FF0102F0070289
:101C400032B110F8013B013A83EA010313B1F8D134
:101C50000020704701387047002D06BF3546033815
:101C6000073815F0010F07D1013015F4807F02BF4E
:101C7000013015F4C03F0130F0BC0138704700BF9F
:101C8000F8B51446F9B1CAB106460D4600F020F881
:101C9000A04202D32F463846F8BD21463046FFF712
:101CA0001FF907460028F6D022462946FEF74EFFC8
:101CB00030462946FFF7B2F83846F8BD2746FFF709
:101CC000ADF83846F8BDBDE8F8401146FFF708B951
:101CD00051F8040C0028A0F10400BCBF0B58C01838
:101CE000704700BF81F0004102E000BF83F0004375
:101CF00030B54FEA41044FEA430594EA050F08BFA7
:101D000090EA020F1FBF54EA000C55EA020C7FEA6A
:101D1000645C7FEA655C00F0E2804FEA5454D4EBE7
:101D20005555B8BF6D420CDD2C4480EA020281EAB1
:101D3000030382EA000083EA010180EA020281EAE9
:101D40000303362D88BF30BD11F0004F4FEA01313B
:101D50004FF4801C4CEA113102D0404261EB41014A
:101D600013F0004F4FEA03334CEA133302D05242D0
:101D700063EB430394EA050F00F0A780A4F101048C
:101D8000D5F1200E0DDB02FA0EFC22FA05F28018C6
:101D900041F1000103FA0EF2801843FA05F35941AC
:101DA0000EE0A5F120050EF1200E012A03FA0EFC2B
:101DB00028BF4CF0020C43FA05F3C01851EBE37155
:101DC00001F0004507D54FF0000EDCF1000C7EEB72
:101DD00000006EEB0101B1F5801F1BD3B1F5001FB0
:101DE0000CD349085FEA30004FEA3C0C04F10104CF
:101DF0004FEA445212F5800F80F09A80BCF1004FF8
:101E000008BF5FEA500C50F1000041EB045141EA79
:101E1000050130BD5FEA4C0C404141EB0101013C42
:101E200028BFB1F5801FE9D291F0000F04BF014631
:101E30000020B1FA81F308BF2033A3F10B03B3F103
:101E400020020CDA0C3208DD02F1140CC2F10C0293
:101E500001FA0CF021FA02F10CE002F11402D8BFF1
:101E6000C2F1200C01FA02F120FA0CFCDCBF41EABD
:101E70000C019040E41AA2BF01EB0451294330BD8C
:101E80006FEA04041F3C1CDA0C340EDC04F1140469
:101E9000C4F1200220FA04F001FA02F340EA030040
:101EA00021FA04F345EA030130BDC4F10C04C4F186
:101EB000200220FA02F001FA04F340EA0300294666
:101EC00030BD21FA04F0294630BD94F0000F83F4B0
:101ED000801306BF81F480110134013D4EE77FEA93
:101EE000645C18BF7FEA655C29D094EA050F08BFDF
:101EF00090EA020F05D054EA000C04BF19461046C0
:101F000030BD91EA030F1EBF0021002030BD5FEA03
:101F1000545C05D14000494128BF41F0004130BD2B
:101F200014F580043CBF01F5801130BD01F000457F
:101F300045F0FE4141F470014FF0000030BD7FEAF2
:101F4000645C1ABF194610467FEA655C1CBF0B46ED
:101F5000024650EA013406BF52EA033591EA030F04
:101F600041F4002130BD00BF90F0000F04BF0021FC
:101F7000704730B54FF4806404F132044FF000052F
:101F80004FF0000150E700BF90F0000F04BF0021A8
:101F9000704730B54FF4806404F1320410F000450E
:101FA00048BF40424FF000013EE700BF42004FEA09
:101FB000E2014FEA31014FEA02701FBF12F07F4386
:101FC00093F07F4F81F06051704732F07F4208BF3D
:101FD000704793F07F4F04BF41F40021704730B544
:101FE0004FF4607401F0004521F000411CE700BF90
:101FF00050EA010208BF704730B54FF000050AE013
:1020000050EA010208BF704730B511F0004502D513
:10201000404261EB41014FF4806404F132045FEA15
:10202000915C3FF4D8AE4FF003025FEADC0C18BFBE
:1020300003325FEADC0C18BF033202EBDC02C2F1B0
:10204000200300FA03FC20FA02F001FA03FE40EA42
:102050000E0021FA02F11444BDE600BF53B94AB99B
:10206000002908BF00281CBF4FF0FF314FF0FF30A0
:1020700000F074B9ADF1080C6DE904CE00F006F87B
:10208000DDF804E0DDE9022304B070472DE9F047F4
:10209000089D04468E46002B4DD18A42944669D94C
:1020A000B2FA82F252B101FA02F3C2F1200120FA2F
:1020B00001F10CFA02FC41EA030E94404FEA1C487D
:1020C000210CBEFBF8F61FFA8CF708FB16E341EA79
:1020D000034306FB07F199420AD91CEB030306F1FF
:1020E000FF3080F01F81994240F21C81023E634420
:1020F0005B1AA4B2B3FBF8F008FB103344EA0344C4
:1021000000FB07F7A7420AD91CEB040400F1FF33D8
:1021100080F00A81A74240F207816444023840EA15
:102120000640E41B00261DB1D4400023C5E900434E
:102130003146BDE8F0878B4209D9002D00F0EF80D1
:102140000026C5E9000130463146BDE8F087B3FA04
:1021500083F6002E4AD18B4202D3824200F2F980EC
:10216000841A61EB030301209E46002DE0D0C5E9EF
:10217000004EDDE702B9FFDEB2FA82F2002A40F03B
:102180009280A1EB0C014FEA1C471FFA8CFE01263E
:10219000200CB1FBF7F307FB131140EA01410EFBE2
:1021A00003F0884208D91CEB010103F1FF3802D289
:1021B000884200F2CB804346091AA4B2B1FBF7F083
:1021C00007FB101144EA01440EFB00FEA64508D9A6
:1021D0001CEB040400F1FF3102D2A64500F2BB80E3
:1021E0000846A4EB0E0440EA03409CE7C6F1200732
:1021F000B34022FA07FC4CEA030C20FA07F401FA78
:1022000006F31C43F9404FEA1C4900FA06F3B1FB00
:10221000F9F8200C1FFA8CFE09FB181140EA014165
:1022200008FB0EF0884202FA06F20BD91CEB010102
:1022300008F1FF3A80F08880884240F28580A8F15A
:1022400002086144091AA4B2B1FBF9F009FB1011AC
:1022500044EA014100FB0EFE8E4508D91CEB01014A
:1022600000F1FF346CD28E456AD90238614440EAED
:102270000840A0FB0294A1EB0E01A142C846A6466D
:1022800056D353D05DB1B3EB080261EB0E0101FAF6
:1022900007F722FA06F3F1401F43C5E90071002653
:1022A0003146BDE8F087C2F12003D8400CFA02FCA9
:1022B00021FA03F3914001434FEA1C471FFA8CFEB9
:1022C000B3FBF7F007FB10360B0C43EA064300FBA9
:1022D0000EF69E4204FA02F408D91CEB030300F147
:1022E000FF382FD29E422DD9023863449B1B89B2FE
:1022F000B3FBF7F607FB163341EA034106FB0EF387
:102300008B4208D91CEB010106F1FF3816D28B4233
:1023100014D9023E6144C91A46EA004638E72E46FF
:10232000284605E70646E3E61846F8E64B45A9D2F7
:10233000B9EB020864EB0C0E0138A3E74646EAE766
:10234000204694E74046D1E7D0467BE7023B614414
:1023500032E7304609E76444023842E7704700BF7D
:10236000024B58221A604FF0FF307047EC050024F2
:10237000024B58221A604FF0FF307047EC050024E2
:10238000044A05491368002B08BF0B461844106027
:1023900018467047F0050024CCB30324FEE700BFC5
:1023A00006490022612303E031F8023F013223B1E4
:1023B0009842F9D1024B33F812007047C4BA0108B1
:1023C000FCBA01087F2814D981B90D4AC72303E05C
:1023D00080290DD032F8023F98421FFA81FC01F1AA
:1023E0000101F5D10CF1800080B27047FF2801D9BE
:1023F00000207047024B803833F81000704700BF50
:10240000C4B90108FEE700BF0B480C4A904203D054
:10241000121A0B49FEF79AFB0A480B4A904203D066
:10242000121A0021FEF7A8FC0AF090F9FEF75AFBF9
:1024300003F054F9FEE700BF000000242C04002440
:10244000BCC7010830040024CCB30324704700BF8C
:1024500049424FF480621430C9B2FEF78DBC00BF10
:10246000704700BF704700BF402070478020704712
:1024700010B50446006818B119F047F8002323602E
:10248000606808B119F041F8204610BD10B5044647
:1024900040F2144119F037F8204610BD70B5ADF583
:1024A0000C7D0D4616460146012201A81C4605F08A
:1024B00057FB18B100200DF50C7D70BD049B29461B
:1024C00001A89B08A34228BF23469A006B4605F04B
:1024D00065FC044601A805F099FD002CEAD1009B9B
:1024E00001209B0833600DF50C7D70BD2DE9F04F88
:1024F00097B0159212930123209A93400793531E8D
:10250000022BCDE9131040F28581931E8246109173
:10251000119311990123079C4A1C03FA02F929FA25
:1025200003F00890002C00F0B2808B40042101FAE7
:1025300002F4129901EBC302033B0994A2F11405C2
:10254000C0EB807201EB8306231D05EB820210991C
:102550000AEB030B0C9504320AEB80050B960E92E6
:1025600003EB8002CB18A8468A18059501936300F7
:102570000292421E0F93002306EB820206930D92F5
:102580004FEA49024FEAC9090A9201EB800204921C
:102590000A1D03921BED017ADAED007A039C77EEB7
:1025A000877A059B019D099A44ED017ADAED007A5C
:1025B0001BED017A049977EEC77A029E45ED017A08
:1025C000D3ED007A1344524477EEA77AC1ED007A36
:1025D000D3ED007A089B77EEA77A012B46ED017ABE
:1025E00063D90F9801F1040E0AF104035044DDE9A8
:1025F0000BC10F1D594693ED007A72ED017A77EE0B
:10260000877AE4EC017A30ED017AD1ED007A77EE49
:10261000C77AEEEC017AB3EC017AD2ED005A90ED74
:10262000006A4345F1EC016A37EE657A77ED017A8D
:1026300076EE866AFCEC015A27EE676A67EEA67AA8
:10264000A5EEA66AE5EE877AE5EC017AA6EC016ACA
:10265000D1D1DDE90D230699CA440A98CB44C84478
:102660000144059848440691059004984844049014
:1026700003984844039001984844019002984844C4
:1026800002900798884285D81299C1E9FC23139BD0
:10269000109A93420CD0119A1093022ADDF850A0A0
:1026A00002F1FF330CD9119333E7DDE90B23D2E7B5
:1026B000119ADDE913A3022A109302F1FF33F2D835
:1026C000139B109A934200F0A780079B002B00F009
:1026D0009E80139A013B02F12001DB0801EB4311BC
:1026E0001346149AD3ED007A203293ED047A203306
:1026F0009FED4E6A77EE877A994242ED087A13EDA4
:10270000047A53ED087A77EEC77A42ED047A53EDF6
:10271000067A77EEA77A42ED067A53ED027A77EEE3
:10272000A77A42ED027A13ED057A53ED077A77EE38
:10273000877A42ED077A13ED017A53ED037A77EE4B
:10274000C77A42ED057A53ED016A13ED077A53ED2E
:10275000055A53ED037A37EE657A77EEA67A77EE6F
:10276000276A77EEC77A26EE867A67EE867A02EDDA
:10277000037A42ED017AB5D1209B0021149AC3F16E
:102780001005079B1032139F9C089E46DDF854C02D
:10279000660012ED026AC8B252ED047A0B0A1CF808
:1027A0000000F0EE006A37EE867A1CF8033077EE10
:1027B000C67A52ED035A43EA002312ED016AB0EEE5
:1027C000475A0431A5EEE67A2B418E4502F11002FC
:1027D000A5EEA65A03EB0600F0EE675A03EB0409D8
:1027E000E6EE667A04EB000807EB8303E6EE265A72
:1027F00007EB800007EB890983ED005A07EB88039C
:1028000080ED007AC9ED005AC3ED007AC1D817B047
:10281000BDE8F08FDDF850A00422209B9A403FF4E1
:1028200054AF51461398FEF72BFA4EE7F304353FA9
:102830002DE9F04F834693B001F11000002411916F
:102840000E93E1B21030230A0434515CD35CB4F52A
:10285000007F43EA01234FEAE3134FEA83010BEBC6
:10286000830301F5806601F50075D3ED007A01F56B
:10287000C0615E445D44594496ED007A77EEC77AB4
:1028800040ED077A91ED007AD5ED007A77EEC77AC0
:1028900040ED057AD1ED006AD3ED007A96ED006A3D
:1028A00095ED007A77EE867A37EE267A77EE876AAC
:1028B00077EEC77A40ED086A40ED067AC1D11199EA
:1028C0005A460B4601F5006093ED007A2032D3EDB5
:1028D000046A2033DFED897A37EE267A984202EDDA
:1028E000087A53ED046A13ED087A37EE667A02ED42
:1028F000047A53F8181C42F8181C53F8081C42F8C4
:10290000081C13ED016A13ED037A53ED076A37EEE5
:10291000467AE7EE276A42ED076A53ED076AE7EE6B
:10292000676A42ED056A13ED037A13ED016A53ED10
:10293000056A37EE067AE7EE276A42ED036A53ED41
:10294000056AD7EE276A42ED016ABDD1119BCDF829
:1029500034B00C9303230B930B98012304220E9C99
:10296000411E03FA00F902FA00F08B404FEA5902C7
:1029700000F1040A4FEA490504EBC301033B4FEAA7
:102980008208089504EB83041439C2EB82730C9D12
:102990004FEAC909069001EB83030431079404331D
:1029A0000A910D9910930AEB820301F1040B8A44FA
:1029B000CB18029308F10403A8F10408CB18A04433
:1029C00000934300043B0993531E05EB820204EB82
:1029D000830303920F932B1804932B1D0193002361
:1029E00005931AED017A5BED017A019877EE877A0B
:1029F000049F009C06463D46039A40ED017A5BED3C
:102A0000017A1AED017A029977EEC77AE5EC017A3C
:102A100054F8043C1360069BD31851F8042C1A6038
:102A20005246DDE9093E03EB000C5846079B3EED9C
:102A3000016A91ED007AF3EC017A27EE467AD2ED45
:102A4000005AD0ED006A9845A7EEA57A77EE266A7F
:102A5000E6EC016AF0EC016A36EEC77A27ED017AFE
:102A6000F1EC015AF2EC016A67EEA57A94ED007A76
:102A7000E6EE267A37EE877AA5EC017AB4EC017A95
:102A800077EEC77A6CED017AD1D1059BCA44089ADA
:102A9000CB441344049A4A44B3F5007F059304924F
:102AA000039A4A440392029A4A440292019A4A447F
:102AB0000192009A4A44009293D30B9B0133092B55
:102AC0000B9304D0DDE90C23CDE90C3244E7DDE9BA
:102AD0000E320C99C3F8F023109AC3F8F423119B1B
:102AE0008B4207D04FF40062184613B0BDE8F04F98
:102AF000FEF7C6B813B0BDE8F08F00BFF304353F52
:102B000030B5ADF5805D04464FF40062002183B01E
:102B100004F55C3502A8FEF72FF94FF4006200219E
:102B20000DF60800FEF728F9D4ED027A95ED887AC3
:102B300002A8F8EE677AA3682168B3F5007F67EE14
:102B4000877A019128BF4FF40073FCEEE77A17EE05
:102B5000902A9A4228BF1A4692000092FDF7F6FF8B
:102B600095F83432DDE90021002B3AD061680DF68A
:102B70000800FDF7EBFF04F6084504F10C0302A87A
:102B80001A4A29460093FFF753FE43F208402946AC
:102B90004FF400622044FDF7D9FF43F608404FF49C
:102BA000006200212044FEF7E7F8009B0DF60800C4
:102BB00029460E4AFFF73CFE44F2084029464FF4EE
:102BC00000622044FDF7C2FF44F608404FF4006263
:102BD000002120440DF5805D03B0BDE83040FEF7D4
:102BE000CBB80DF60800FDF7B1FFC4E704BC01083F
:102BF0002DE9F041B02482B000F1080600F1100583
:102C000000F11408002728468DF8074001343946A2
:102C100007F010FB642301220DF107013046E4B2F6
:102C200009F018FA394628468DF8077007F002FBBC
:102C3000012264230DF10701304609F00BFA10233D
:102C4000394628468DF8073007F0F4FA642301224C
:102C50000DF10701304609F0FDF90121284607F082
:102C6000E9FA8022414664233046904409F0F2F9A3
:102C7000B82CC7D102B0BDE8F08100BF7F291ED8B3
:102C80003F2A1CD86BB1D3084FF0010C02F00702A9
:102C900001EBC3130CFA02F2C1180B7D1A430A753B
:102CA0007047D3084FF0010C02F0070201EBC31389
:102CB0000CFA02FCC1180A7D22EA0C020A75704760
:102CC0002DE9F04F83B05C1A0C9E002C9DF83490D7
:102CD000A6EB0208B8BF6442B8F1000FB8BFC8F154
:102CE00000088B428CBF4FF0010A4FF0FF3A96422A
:102CF000A4EB080C51D84FF0FF357F2B019512D86B
:102D00003F2E10D8F50806F0070E012703EBC51576
:102D10000544B9F1000F47D007FA0EF795F814E013
:102D200047EA0E072F75964201D18B4229D0C8F190
:102D300000077F2914D83F2A12D8D50802F0070BC4
:102D40004FF0010E01EBC5150544B9F1000F1BD082
:102D50000EFA0BFE95F814B04EEA0B0E85F814E04F
:102D6000B7EB4C0F4FEA4C0502DAACEB080C5144C0
:102D7000AC4202DD019DA4442A449942D9D1964235
:102D8000D7D103B0BDE8F08F0EFA0BFB95F814E035
:102D90002EEA0B0E85F814E0E2E701257F2B019562
:102DA000C5D83F2EAED9C2E707FA0EFE2F7D964258
:102DB00027EA0E072F75B8D0B9E700BF0000000062
:102DC0002DE9F04F2DED068B83B01F4680460D4652
:102DD0009DF8503016460193139B002BC0F22182C0
:102DE000129A134406EE103ADDED127AB8EEC66B75
:102DF0009FEDCD4BB8EEE77B9FEDCD5B27EE047BDF
:102E000026EE046B87EE050B86EE05ABF7EEC08B66
:102E1000B0EE680AFDF788FA07EE907AB7EECAAB13
:102E2000F8EE679AB0EE408AB0EE680AFDF738FD1A
:102E300060EE698AB0EE4A0AFDF776FAB0EE409A83
:102E4000B0EE4A0AFDF72CFD20EE690A29EE888AC9
:102E500029EE899A70EE687AF0EE006A39EE487AC7
:102E600067EEA77AE7EE077AF4EEE67AF1EE10FA6B
:102E700006D5139BB42B40F396804FF0010901E077
:102E80004FF00009012478424FF0000C0095E31B3D
:102E9000214627462246A340B9F1000F6AD142429B
:102EA00006EE90CACCF1000107EE102AB8EEE66AF1
:102EB00007EE901A06EE900AB8EEC77A139A66EEFD
:102EC000084AF8EEE77AB42A27EE284AF8EEE66ACE
:102ED00067EE885A74EEC43A26EEA85A26EE096ABE
:102EE00066EE806A67EE897A27EE007AF5EEC03AE0
:102EF00040F3F280F1EE10FA00F17F8176EE473A6E
:102F000074EEC54AF5EEC03AF1EE10FAF5EEC04A9D
:102F1000CCBF01220022F1EE10FA00F1778136EEEB
:102F2000666A35EEC55AB5EEC06AF1EE10FAB5EE36
:102F3000C05ACCBF01210021F1EE10FA00F16F81DF
:102F400077EEE66AF5EEC06AF1EE10FACCBF012723
:102F5000002775EEC45AF5EEC05AF1EE10FA00F1F2
:102F6000478177EEC77AF5EEC07AF1EE10FACCBF62
:102F700001240024002A40F08A80002964D1BFB9CE
:102F8000C4BB9C4558DB0CF1010C03EB4C0E1CEB55
:102F9000000F0EF1010E00F0C08098424FDB734627
:102FA00000287FF779AF03B0BDEC068BBDE8F08F4A
:102FB000009DA6EB0C0E00EB050ABAF17F0FDFD8DF
:102FC000BEF13F0FDCD84FEADE0B019D0AEBCB1AB6
:102FD000002D00F0B1800EF0070BC2444FF0010E3F
:102FE0000EFA0BFE9AF814B04EEA0B0E8AF814E0B3
:102FF000002CC6D0009DA6EB0C0EA5EB000ABAF182
:103000007F0FBED8BEF13F0FBBD84FEADE0B019D4C
:103010000AEBCB1A002D00F0AE800EF0070BC24475
:103020004FF0010E9C450EFA0BFE9AF814B04EEAD2
:103030000B0E8AF814E0A6DA98429E46AFDA013009
:103040000EEB40030133ABE7009D0CEB060E00EBEB
:10305000050ABAF17F0F92D8BEF13F0F8FD84FEA21
:10306000DE0B019D0AEBCB1A002D73D00EF0070B7F
:10307000C2444FF0010E0EFA0BFE9AF814B04EEA5D
:103080000B0E8AF814E0002F3FF47AAF90E7009D12
:103090000CEB060EA5EB000ABAF17F0F3FF66DAF01
:1030A000BEF13F0F3FF669AF4FEADE0B019D0AEB21
:1030B000CB1A002D6DD00EF0070BC2444FF0010E5D
:1030C0000EFA0BFE9AF814B04EEA0B0E8AF814E0D2
:1030D00000293FF454AFB7E7F1EE10FA7ED44A4628
:1030E00074EEC54AF5EEC04AF1EE10FA6CD4002138
:1030F00035EEC55AB5EEC05AF1EE10FA5AD4002793
:1031000075EEC45AF5EEC05AF1EE10FA3FF529AF4C
:103110000024002A3FF431AFB9E798428FDB002347
:103120003BE700BFAFF300807A008BFCFA21094037
:103130000000000000806640C2444FF0010B0EF01A
:10314000070E0BFA0EFE9AF814B02BEA0E0E8AF850
:1031500014E015E7C2444FF0010B0EF0070E0BFA16
:103160000EFE9AF814B02BEA0E0E8AF814E0002F27
:103170003FF406AF1CE7C2444FF0010B0EF0070E00
:103180000BFA0EFE9AF814B02BEA0E0E8AF814E031
:10319000F7E6C2444FF0010B0EF0070E0BFA0EFEDD
:1031A0009AF814B02BEA0E0E8AF814E000293FF4C6
:1031B000E6AE49E777EEE66AF5EEC06AF1EE10FAA0
:1031C000CCBF012700279BE736EE666AB5EEC06AE2
:1031D000F1EE10FACCBF0121002189E776EE473AE3
:1031E000F5EEC03AF1EE10FACCBF0122002277E7EB
:1031F0000124002A3FF4C1AE49E774EEC54A01221A
:10320000F5EEC04AF1EE10FA7FF589AE35EEC55AFB
:103210000121B5EEC05AF1EE10FA7FF591AE01270B
:1032200097E6DDE91223134406EE102A1293139B4E
:103230005B421393D8E500BF2DE9F04F89B008AC8D
:103240009DF84870019104E90C000B78002B00F008
:10325000AB801A469DF818809DF819300646454601
:1032600090460393079B0593A8F12004E3B25E2BDD
:1032700000F29E8033685E4ADB68934240F09B8098
:103280008020B3882B44834200F392803368594AEC
:103290009B68934240F092804020F188039A02910B
:1032A0008B18834200F38480002A00F0918002FB97
:1032B00004F46FF00049059BA1441444B6F804B02F
:1032C00003EB4909023BCDF8108003EB44030C46A5
:1032D0009A4639F802CFA5B304F007034FF0010E68
:1032E000E20859460EFA03FE0BF114034FFA8EFE64
:1032F00003EBC21200236FEA0E0832440DE07F296F
:1033000006D83F2C04D8107897B14EEA0000107010
:10331000013301320131AB4213D00CFA03F0000447
:10332000EDD47F29F4D83F2CF2D81078002FECD0C0
:10333000013308EA000001320131AB4202F8010C0E
:10334000EBD1D14504F10104C3D1DDF8108032681E
:103350000BEB05042649D368A4B28B4234D18020FC
:10336000844204D3D36822498B423AD17F249368A4
:10337000204AB480934224D14020029B834206D34A
:1033800033681C4A9B68934225D13F230293029BDA
:10339000F380019B1878404507D113F8018F019302
:1033A000B8F1000F7FF460AF002009B0BDE8F08FE6
:1033B0004FF00008EDE73046984762E730469847FF
:1033C0006BE730469847D8E7304698473268C7E7FA
:1033D000B6F804B0BBE730469847013883B2029391
:1033E000D5E7304698470138326884B2BFE700BF5E
:1033F0006D240008692400082DE9F04F964683B03B
:1034000006461F461EF8014B91460D460C9B0D9833
:103410009DF83880002C00F010814FF0000C1EF851
:10342000014B0CF1010C002CF9D11FFA8CFC3C78FB
:103430007A7814FB0CFC11B20FFA8CFC2CEAEC7CB1
:10344000082800F2E580DFE800F04A5DBAD1748414
:103450009DA405009A88B3F800A09244B3F9062011
:10346000AAEB0C0A002A1FFA8AFA49DB5C88F18071
:1034700004EB6204A6F804C0A6F800A0A4EB510176
:103480008CB274802B68DFF8D4B1DA685A454CD11D
:103490008020504505D8DA685A4540F0D5804FF075
:1034A0007F0A9B68A5F804A0DFF8B4A1534540F05B
:1034B000C1804020A04205D82B689B68534540F04E
:1034C000BE803F24EC804946CDF80080284697E82E
:1034D0000C00FFF7B1FE304603B0BDE8F08FB3F942
:1034E0000420B3F800A0002AB8BF01320AEB620A38
:1034F000B3F90620AAEB6C0A002A1FFA8AFAB5DA99
:103500000132B3E7B3F900A0B3F902402B68DFF84A
:103510004CB1DA68A6F800A01FFA8AFA5A457480FE
:10352000A6F804C0A4B2F180B2D0284690472B6818
:10353000AFE75C88D888B3F900A00444A6F804C0BB
:10354000A6F800A01FFA8AFAA21AF18094B2748039
:1035500098E7B3F90400B3F800A00028B8BF013021
:103560000AEB600AAAEB6C0A5C881FFA8AFADB880D
:10357000A6F804C01C44F180A6F800A0A21A94B2D8
:1035800074807FE7B3F800A098888244AAEB0C0A05
:10359000EAE7B3F906205C88002AB3F900A0F180BD
:1035A000B8BF0132A6F800A0A6F804C01FFA8AFA34
:1035B00004EB6204A4EB51018CB2748062E7B3F9AE
:1035C0000420B3F800A0002AB3F90240A6F804C012
:1035D000B8BF01327480F180A4B20AEB620AAAEB90
:1035E0006C0C1FFA8CFAA6F800A04BE7B3F800A009
:1035F0009A88B3F902409244A6F804C07480A4B239
:10360000AAEB0C0CF1801FFA8CFAA6F800A039E79F
:103610002B680024DFF844B0DA6834805A4574809F
:10362000B480F48017D19B68DFF834A0AC80534598
:103630003FF448AF284698473CE7A446F7E62846BB
:103640009847013884B23DE72846904701382B68F7
:103650001FFA80FA25E7A24667E700BF6D2400083D
:10366000692400082DE9F04F87B09DF84850109C60
:103670002E4601959DF844509EB399422ED8994606
:10368000A24228D87F29164694BF0023012308E0D0
:103690009CF814804EEA080E8CF814E00136B4420F
:1036A00019D33F2EFAD8002BF8D14FEAD60C06F0EA
:1036B000070E4FF0010801EBCC1C08FA0EFE844403
:1036C000002DE5D19CF814B001362BEA0E0AB44265
:1036D0008CF814A0E5D201318945D1D207B0BDE8FC
:1036E000F08FA3EB0108B8F1000FB8BFC8F10008D4
:1036F0009942C0F04E817F2B4FF0FF3A94BF0026D5
:1037000001263F2A009694BF002701270297A6B9F9
:103710009FB9D60802F0070C012703EBC616064432
:10372000002D00F0948107FA0CF796F814C047EAD0
:103730000C073775002602960096994200F0978193
:10374000464694468E46BEF17F0F16D8BCF13F0F19
:1037500013D84FEADC070CF0070B4FF001090EEB12
:10376000C7170744002D00F0398109FA0BF997F8C3
:1037700014B049EA0B0987F81490770018BFD644B3
:10378000B84502DD46440CF1FF3C7345DBD1624590
:10379000D9D100260496A4EB0209009FB9F1000FCD
:1037A000B8BFC9F100093F2C94BF00260126A242F0
:1037B000C9F100080396C0F02381002F40F050812A
:1037C000002E40F04D814FF0FF360096E60803EBE7
:1037D000C6160644002D00F01E814FF0010C04F0C7
:1037E00007070CFA07F796F814C047EA0C07377575
:1037F00000260396A24200F03D81C44616461F46AD
:1038000005927F2F15D83F2E13D84FEAD60E06F01B
:10381000070B4FF0010A07EBCE1E8644002D00F087
:10382000E6800AFA0BFA9EF814B04AEA0B0A8EF800
:1038300014A0B8EB4C0F4FEA4C0E02DAACEB090CBB
:10384000013FBEF1000F01D0009A1644BB42D8D10F
:10385000B442D6D1059AA1EB030EBEF1000FB8BF5A
:10386000CEF1000E7F2994BF4FF0000A4FF0010AFD
:1038700099428CBF4FF001094FF0FF39BAF1000FA8
:1038800013D1039E8EB9E60801EBC6160644002D3F
:1038900000F0D3804FF0010C04F007070CFA07F793
:1038A00096F814C047EA0C073775049E26BB774686
:1038B00026467F2B14D83F2E12D84FEAD60C06F09E
:1038C000070B4FF0010803EBCC1C8444002D73D090
:1038D00008FA0BF89CF814B048EA0B088CF814802E
:1038E0005FEA470C18BF4B44E64501DD7744013ED3
:1038F0009942DED1B442DCD1A2EB040EBEF1000F3E
:10390000B8BFCEF1000EA2428CBF4FF001084FF0BD
:10391000FF38CEF1000CBAF1000F0ED1029B63B953
:10392000D30802F00707012601EBC3130344002D5F
:103930007CD0BE401F7D3E431E75019B002B7FF453
:10394000CDAE66460B467F2B12D83F2C10D8E70829
:1039500004F0070A4FF0010903EBC7170744A5B3AA
:1039600009FA0AF997F814A049EA0A0987F81490A5
:10397000BCEB460F4FEA460702DAA6EB0E06013B08
:1039800007B144449942DED1A242DCD107B0BDE880
:10399000F08F3F2A4FF0010A94BF002601267F2BAB
:1039A000029694BF002701270097002E7FF4C8AE2F
:1039B000002F3FF4AEAEC3E608FA0BFB9CF8148070
:1039C00028EA0B088CF814808AE709FA0AFA97F8B3
:1039D000149029EA0A0987F81490C9E709FA0BFB41
:1039E00097F8149029EA0B0987F81490C5E60AFAAB
:1039F0000BFB9EF814A02AEA0B0A8EF814A018E715
:103A000097BB8EBB01260096E60803EBC61606445C
:103A1000002D7FF4E2AE012704F0070C039507FAAE
:103A20000CFC377D27EA0C073775E3E606FA07F743
:103A30001E7D26EA07061E757FE7012704F0070CA6
:103A400007FA0CFC377D27EA0C0737752DE707FAD4
:103A50000CFC377D029527EA0C07009537756CE65C
:103A60004FF0FF360096C5E601260096C5E6012612
:103A7000049690E601260196EDE600BF2DE9F04F91
:103A800085B0A1F1200504AC9DF83870009104E9DF
:103A90000C00EBB25E2B00F29580036880465D4A15
:103AA000DB689DF8084093429DF8096040F09480DF
:103AB0008020B8F804302344834200F38380D8F890
:103AC0000030554A9B68934240F088804020B8F807
:103AD000062093190192834274DC002E00F0898045
:103AE00006FB05F56FF00040039B964628442E44E4
:103AF000B8F804A003EB4000023B03EB460B30F8A0
:103B0000026FBCB30EF007034FF0010C4FEADE0268
:103B100051460CFA03FC0AF114034FFA8CFC03EB38
:103B2000C21200236FEA0C0942440EE07F2907D835
:103B3000BEF13F0F04D815789FB14CEA050515700A
:103B40000133013201319C4214D006FA03F52D04F1
:103B5000ECD47F29F4D8BEF13F0FF1D81578002FAF
:103B6000EBD0013309EA0505013201319C4202F82C
:103B7000015CEAD158450EF1010EC0D1D8F80030F1
:103B800054442449DA68A4B28A422DD18020844268
:103B90001CD29B68204AA8F80440934221D14020BF
:103BA000019B834207D3D8F800301B4A9B6893429D
:103BB00029D13F230193DDE90003A8F8063005B0C1
:103BC000BDE8F08F002005B0BDE8F08FDA6811493C
:103BD0008A4211D17F24DCE798476AE7404698473C
:103BE00075E740469847DBE740469047D8F80030F5
:103BF000CDE7B8F804A0C1E7404690470138D8F8AF
:103C0000003084B2C5E740469847013883B201933B
:103C1000D1E700BF6D2400086924000800220F4B83
:103C20000221B3F804C010B5C0E902220124B3F8A0
:103C300000E0A0F804C004610824A0F800E044619A
:103C4000C0E906220B22C0E90811428019899A892D
:103C50001B8AC1800285438510BD00BF48B501089D
:103C60002DE9F041044600682D4A82B003681B69C3
:103C700093424DD14FF4806200211430FDF77CF85F
:103C80002068284A03681B6B934244D100F1080660
:103C900000F1100500F11408B024002728468DF823
:103CA00007400134394606F0C5FA642301220DF1BC
:103CB00007013046E4B208F0CDF9394628468DF8C0
:103CC000077006F0B7FA012264230DF107013046B0
:103CD00008F0C0F91023394628468DF8073006F061
:103CE000A9FA642301220DF10701304608F0B2F968
:103CF0000121284606F09EFA802241466423304680
:103D0000904408F0A7F9B82CC7D102B0BDE8F08103
:103D100000219847B4E702B0BDE8F041184700BF62
:103D200051240008F12B00082DE9F04104460068F9
:103D3000654A84B003681B6993427DD14FF4806269
:103D400000211430FDF718F82568DFF894812B68FE
:103D5000DA68424540F0968000229B685B4FAA805B
:103D6000BB4240F08480002320680122EB80584E43
:103D70000368584900929D6A96E80C00A847256898
:103D80002B68DA68424568D100229B68AA80BB4252
:103D900059D10C232068EB800125016896E80C00BE
:103DA00000958D6A4C49A84720684C4A03681B6BF4
:103DB000934244D100F1080600F1100500F1140807
:103DC000B024002728468DF80F400134394606F00C
:103DD00031FA642301220DF10F013046E4B208F0FC
:103DE00039F9394628468DF80F7006F023FA01227A
:103DF00064230DF10F01304608F02CF910233946E9
:103E000028468DF80F3006F015FA642301220DF1D3
:103E10000F01304608F01EF90121284606F00AFA83
:103E20008022414664233046904408F013F9B82CB0
:103E3000C7D104B0BDE8F0810021984784E704B001
:103E4000BDE8F0411847284698470C28A1D82B68B0
:103E50009B68BB4221D13F239CE7284690472B68B3
:103E6000002891D1DA68424527D17F228DE7284684
:103E7000984700287FF477AF2B689B68BB4217D127
:103E80003F2371E7284690472B6800287FF464AFF2
:103E9000DA68424506D17F225FE728469847013815
:103EA00083B277E72846904701382B6882B254E7FF
:103EB00028469847013883B256E72846904701388C
:103EC0002B6882B261E700BF512400086924000812
:103ED0000C02002434BB010840BB0108F12B000890
:103EE0006D2400082DE9F04304460068684A85B057
:103EF00003680F461B69934240F083804FF4806251
:103F000000211430FCF738FF2568DFF89C812B680E
:103F1000DA68424540F09B8000229B68DFF88C9174
:103F2000AA804B4540F08880002320680122EB8066
:103F3000584E0368584900929D6A96E80C00A847BD
:103F400025682B68DA6842456CD100229B68AA80FC
:103F50004B455DD10C232068EB8003684F499D6A77
:103F60004F4B002F08BF19460123009396E80C0021
:103F7000A84720684B4A03681B6B934244D100F169
:103F8000080600F1100500F11408B02400272846A7
:103F90008DF80F400134394606F04CF964230122B4
:103FA0000DF10F013046E4B208F054F839462846C6
:103FB0008DF80F7006F03EF9012264230DF10F0118
:103FC000304608F047F81023394628468DF80F3060
:103FD00006F030F9642301220DF10F01304608F09C
:103FE00039F80121284606F025F98022414664234C
:103FF0003046904408F02EF8B82CC7D105B0BDE883
:10400000F083002198477FE705B0BDE8F0431847EB
:10401000284698470C289DD82B689B684B4521D192
:104020003F2398E7284690472B6800288DD1DA680F
:10403000424527D17F2289E72846984700287FF408
:1040400073AF2B689B684B4517D13F236DE728461C
:1040500090472B6800287FF45FAFDA68424506D1AD
:104060007F225AE728469847013883B273E72846EB
:10407000904701382B6882B24FE7284698470138AD
:1040800083B252E72846904701382B6882B25DE739
:10409000512400080C02002434BB01084CBB010869
:1040A0005CBB0108F12B00086D240008692400089E
:1040B0002DE9F04304460068684A85B003680F465E
:1040C0001B69934240F083804FF4806200211430DA
:1040D000FCF752FE2568DFF89C812B68DA684245C0
:1040E00040F09B8000229B68DFF88C91AA804B45B2
:1040F00040F08880002320680122EB80584E03683E
:10410000584900929D6A96E80C00A84725682B68DC
:10411000DA6842456CD100229B68AA804B455DD18C
:104120000C232068EB8003684F499D6A4F4B002F9A
:1041300008BF19460123009396E80C00A8472068A1
:104140004B4A03681B6B934244D100F1080600F10F
:10415000100500F11408B024002728468DF80F4000
:104160000134394606F066F8642301220DF10F018F
:104170003046E4B207F06EFF394628468DF80F70DE
:1041800006F058F8012264230DF10F01304607F0C4
:1041900061FF1023394628468DF80F3006F04AF8A3
:1041A000642301220DF10F01304607F053FF012176
:1041B000284606F03FF8802241466423304690446A
:1041C00007F048FFB82CC7D105B0BDE8F083002147
:1041D00098477FE705B0BDE8F04318472846984761
:1041E0000C289DD82B689B684B4521D13F2398E72D
:1041F000284690472B6800288DD1DA68424527D1A0
:104200007F2289E72846984700287FF473AF2B6800
:104210009B684B4517D13F236DE7284690472B6895
:1042200000287FF45FAFDA68424506D17F225AE763
:1042300028469847013883B273E7284690470138EB
:104240002B6882B24FE728469847013883B252E77D
:104250002846904701382B6882B25DE75124000858
:104260000C02002434BB010870BB01087CBB0108B0
:10427000F12B00086D240008692400082DE9F043A3
:1042800004460068BC4A03681B6993422DED068B07
:10429000B0EE409A85B0F0EE609AB0EE418AF0EE52
:1042A000618AB0EE42AA40F0EA804FF480620021B9
:1042B0001430FCF761FD2568DFF8E0822B68DA68CE
:1042C000424540F0378100229B68AC4FAA80BB4238
:1042D00040F0258100232646EB800122A84D56F8A8
:1042E000040BA84903680092D3F8289095E80C00C5
:1042F000C847DFEDA57AFDEEE99AA44A29EE279A90
:1043000040213046CDED009AFDEEC97A17EE903A85
:10431000FCF7DEFFD4F80090D9F80030DA684245A7
:1043200040F0F18000229B68A9F80420BB4240F0D5
:10433000DE800C2320680122A9F80630314603688C
:104340000092D3F8289095E80C00C847DFED8E7AEC
:10435000FDEEE88A8E4A28EE278A40213046CDEDD0
:10436000008AFDEEC87A17EE903AFCF7B1FFD4F858
:104370000090D9F80030DA68424540F0AC80002265
:104380009B68A9F80420BB4240F09980182320685C
:104390000122A9F80630314603680092D3F828902C
:1043A00095E80C00C847FDEECA7A7A4A40213046AB
:1043B00017EE903AFCF78CFFD4F80090D9F8003053
:1043C000DA6842456FD100229B68A9F80420BB42FD
:1043D0005ED1242320680122A9F806303146036803
:1043E00000929E6A95E80C00B04720686A4A03680C
:1043F0001B6B934246D100F1080600F1100500F155
:104400001408B024002728468DF80F40013439469F
:1044100005F010FF642301220DF10F013046E4B2D4
:1044200007F018FE394628468DF80F7005F002FF98
:10443000012264230DF10F01304607F00BFE10231B
:10444000394628468DF80F3005F0F4FE642301222A
:104450000DF10F01304607F0FDFD0121284605F062
:10446000E9FE8022414664233046904407F0F2FD85
:10447000B82CC7D105B0BDEC068BBDE8F083002198
:10448000984718E705B0BDEC068BBDE8F043184728
:104490004846984724289CD8D9F800309B68BB42EE
:1044A00053D13F2396E748469047D9F8003000287B
:1044B00089D1DA68424540F084807F2284E748460B
:1044C000984718283FF662AFD9F800309B68BB4286
:1044D00072D13F235BE748469047D9F80030002867
:1044E0007FF44DAFDA6842455FD17F2248E7484606
:1044F00098470C283FF61DAFD9F800309B68BB42A7
:104500004ED13F2316E748469047D9F8003000289F
:104510007FF408AFDA68424527D17F2203E72846B7
:10452000984700287FF4D6AE2B689B68BB4217D112
:104530003F23D0E6284690472B6800287FF4C3AE7F
:10454000DA68424506D17F22BEE6484698470138E0
:1045500083B23FE72846904701382B6882B2B3E622
:1045600028469847013883B2B5E648469047013857
:10457000D9F8003082B2D6E6512400086924000838
:104580000C02002484BB01080000C84290BB010853
:10459000A4BB0108B4BB0108F12B00086D2400087E
:1045A00048469847013883B2C4E6484690470138E8
:1045B000D9F8003082B2E3E648469847013883B222
:1045C000E5E6484690470138D9F8003082B2FBE66C
:1045D000062810B523D0072820D11B4AB7EE000AC1
:1045E000DFED1A7A13781A4883F00103194C002B77
:1045F000137007FE800A05F081F817481749184A1A
:10460000184BD0ED001A94ED002A91ED001AD2ED6E
:10461000000A93ED000A1448FFF730FE10BD134C5A
:10462000F7EE007A9FED090A2378114883F0010321
:10463000002B237007FE800A05F060F821780A48F5
:10464000FFF736FD10BD00BF4C0A0024000000003B
:10465000180C00247C000024840000248000002426
:104660006C0C00246C000024080A0024680000245C
:10467000FC0B002406282DE9F04786B009D0072856
:1046800004D1A04B1C78002C40F0CE8006B0BDE8D1
:10469000F0879D4CB7EE007ADFED9C6A45F6BF517E
:1046A00094ED8C6A4FF07C529FED995A26EE266A63
:1046B000D4ED885A974FF4EE475ADFF89882C6EE49
:1046C000057A9FED950ADFF89092944E944DDFF8AD
:1046D0008CA23A60C4F81822C8ED006AC4ED876A5B
:1046E00089ED007A86ED000A8AED007AFCEEE77A21
:1046F00017EE903A8B4228BF0B46F1EE10FAC4F841
:104700001432884B2B6040F0A181874884ED890AE0
:1047100016F030FE9FED850A834816F08FFEB7EE47
:10472000000A814816F0D0FE94ED8A0A804816F0FF
:1047300021FE9FED7E0A7E4816F080FEB7EE000A4D
:104740007B4816F0C1FE94ED890A7A4816F012FEF5
:104750009FED760A774816F071FEB7EE000A7548AD
:1047600016F0B2FE94ED8A0A734816F003FE9FED30
:104770006F0A714816F062FEB7EE000A6E4816F036
:10478000A3FE2B6894ED890A6748C4F8283216F016
:10479000F1FD9FED660A644816F050FEB7EE000A80
:1047A000614816F091FE94ED8A0A614816F0E2FD28
:1047B0009FED5E0A5E4816F041FEB7EE000A5C48C7
:1047C00016F082FE94ED890A5A4816F0D3FD9FED4B
:1047D000570A584816F032FEB7EE000A554816F050
:1047E00073FE94ED8A0A544816F0C4FD9FED4F0AFB
:1047F000514816F023FEB7EE000A4F4816F064FE4B
:10480000DAF8003095ED002AD6ED001A99ED001A7D
:10481000D8ED000A97ED000A4848C4F82C32FFF79B
:104820002DFD06B0BDE8F0874FF4804016F080FE05
:1048300005464FF4804016F07BFE414B00220646B1
:104840001B780492002B00F08B803E4F3B79002BAD
:1048500000F08A803B68002B00F086804FF4805384
:1048600004AA29463848FDF719FE00287CD03B7978
:10487000002B79D03B68002B76D04FF4805305AAEB
:1048800031463248FDF70AFE824600286CD0DDE949
:104890000483984504D0984528BF9846CDF81080E9
:1048A00008F1FF33B3F5805F5FD2294F386808B154
:1048B00016F02BFE786808B116F027FE4FEA88093B
:1048C000484616F035FE3860484616F031FE3B6823
:1048D0007860002B00F0188118464A462946544655
:1048E000FCF734F94A4631467868FCF72FF9064858
:1048F0000123C7F8088080F83432A0F55C30FEF759
:10490000FFF832E0D87F0324707C0324000000000D
:1049100000007A446C0000240000C8428400002497
:104920007C00002400401C46A87E0324F4FD343F94
:10493000F47E0324407F03248C7F0324080A002490
:10494000F80B0024F00B0024CCBB0108DCBB0108F1
:10495000700C00246C0C00248000002488000024CB
:104960006D4B1A68002A7AD1002428466B4F16F046
:10497000CCFD304616F0C9FD3D68694A2B68694E8A
:104980001470DA68B24240F09C8000229B68664E48
:10499000AA80B34240F0A28018226449644BEA80A6
:1049A000002C18BF0B46634A40216348FCF790FC7B
:1049B00038680122614B016800928C6A5E490CCB19
:1049C000A04738685E4A03681B6B934240F08480BE
:1049D00000F1080600F1100500F11408B0240027CA
:1049E00028468DF814400134394605F023FC642331
:1049F000012205A93046E4B207F02CFB39462846CF
:104A00008DF8147005F016FC0122642305A93046C8
:104A100007F020FB1023394628468DF8143005F0A6
:104A200009FC6423012205A9304607F013FB01218C
:104A3000284605F0FFFB414664238022304608F1FA
:104A4000800807F007FBB82CC9D11FE6A4F55C303D
:104A500084ED887AFEF754F896ED000A55E61B7946
:104A6000012B81D14FF4805304AA29463548FDF724
:104A700015FD804600283FF477AFDDF8109009F16E
:104A8000FF33B3F5805FBFF470AF2F4F386808B1C4
:104A900016F03BFD4FEA890244461046039216F099
:104AA00047FD039A29463860FCF750F82748002351
:104AB000C7F8089080F83432A0F55C30FEF720F893
:104AC00053E7284690472B6800287FF45EAFDA68EA
:104AD000B2420ED17F2259E79847D7E5284698473A
:104AE00018283FF659AF2B689B68B34207D13F2285
:104AF00053E72846904701382B6882B246E728469C
:104B00009847013882B248E7039316F0FEFC039BF6
:104B100054467B6029E700BFF00B0024080A0024FC
:104B2000EC0B00246D24000869240008BCBB0108BC
:104B3000C4BB0108FCBB01080C0A00240C020024C1
:104B4000F12B0008ECBB0108700C0024707C0324DE
:104B50002DE9F8434FF07E5200F55C37002300F555
:104B600000414FF07C54064600F10C0802252DED63
:104B7000028BC0E900338360C1F80834C1F80C34FB
:104B80000021C7F82022C7F82C22604AC7F8184233
:104B9000C7F830225E4AC7F81C12C7F824225D4AC3
:104BA00087F83432C7F82822C7E9843380F8043400
:104BB00001249FED597AB7EE000A9FED588AAC4068
:104BC0006300043C07EE903A08EBC40908EB840448
:104BD000F8EEE77A09F11009C7EE278A01E0FBF742
:104BE000A3FB38EE288AA4EC010AA145B0EE480ADE
:104BF000F5D10135082DDBD145F208404FF40062B4
:104C00000021DFF830913044DFF82C81FCF7B4F854
:104C100045F608404FF4006200213044B144FCF7EF
:104C2000ABF846F208404FF4805200213044B044C3
:104C3000FCF7A2F847F208404FF4805200213044BC
:104C4000374DFCF799F848F21040364A00213044BD
:104C5000354CFCF791F83548324A00213044FCF7D6
:104C60008BF897ED8C0A484616F0FCFA97ED8C0A03
:104C7000404616F0F7FA97ED8C0AA81916F0F2FAEA
:104C800097ED8C0AA01916F0EDFA97ED890A4846BF
:104C900016F070FB9FED260A484616F0CFFBB7EEE4
:104CA000000A484616F010FC97ED8A0A404616F0B6
:104CB00061FB9FED1F0A404616F0C0FBB7EE000AED
:104CC000404616F001FC97ED890AA81916F052FB30
:104CD0009FED170AA81916F0B1FBB7EE000AA81944
:104CE00016F0F2FB97ED8A0AA01916F043FB9FED30
:104CF000100AA01916F0A2FBA019B7EE000A16F0D0
:104D0000E3FB3046BDEC028BBDE8F88300803B47F7
:104D10000000C84200401C46DB0F49400000000074
:104D2000D0720300007701001C73030010FB010028
:104D3000F4FD343F38720300847203002DE9F04F14
:104D400003682DED048B87B0F0EE408AB0EE608AE8
:104D5000CDE90312002B00F06E8100F55C380746A8
:104D600048F21041B84BD8F8102245F6C05548F229
:104D7000104400EB820001440344B34881ED000A73
:104D8000C3ED000A5319D8F8141201325B1AAF4967
:104D9000A1FB03C6A1FB02C1760A490A05FB163333
:104DA00005FB112107EB83031C44184425680068A8
:104DB000C8F8101207F50041D1F8082407EB820368
:104DC000013203F5A043B2F5007F03F5816403F6D9
:104DD0000843256018605ED2C1F8082447F20843F2
:104DE0009B483B44384493ED009A46F208433B44C9
:104DF00093ED000A16F05AFA964898ED9B0A38444B
:104E000016F054FA9448B0EE490A98EDAD9A384439
:104E100016F04CFA914898EDC10A384416F046FA5B
:104E2000B7EE007AD8ED8B7AD8EDD36AF4EE477AF4
:104E3000F1EE10FA1CD1B7EE007AD8ED867A039B1A
:104E400027EE899A77EE677AA7EEA89A83ED009A03
:104E5000D8ED867A049B37EE677A67EEA67AE7EE9E
:104E6000087AC3ED007A07B0BDEC048BBDE8F08F83
:104E7000B6EE007A39EE666A76EE895A66EE076A11
:104E800066EEA77AB0EE679AD5EE877AA5EE879A96
:104E9000F0EE676ACFE7002407F5816B41F2084620
:104EA00007F10C03C1F8084445F2084107F6084A27
:104EB00041F608453E4439444FF4006258463D44AB
:104EC0000593FBF743FE059B654A51465846FDF79F
:104ED000AFFC4FF4006251463046FBF737FE2146E7
:104EE0004FF400622846FBF747FF43F2084C43F6B5
:104EF00008403446BC44294638443246059BD1ED2F
:104F0000007AFCEC016AF0EC015A27EEA67A92EDE9
:104F1000006A65EEE77AA6EE257AE6EE267AE2ECFE
:104F2000017AAA42A1EC017AE9D14FF4007230462D
:104F300029460593009242F20849494A42F608463A
:104F4000FDF7D4FA45F60841B9444FF400623944FC
:104F50005846FBF7FBFD3E44059B51465846404AE8
:104F6000FDF766FC51464FF400624846FBF7EEFD44
:104F70004FF4006200213046FBF7FEFE44F2084C7D
:104F800044F60840CA46BC44324638444946059B6C
:104F9000D2ED007AFCEC016AF0EC015A27EEA67A19
:104FA00091ED006A65EEE77AA6EE257AE6EE267ABE
:104FB000E1EC017AB142A2EC017AE9D14FF400723E
:104FC000484647F208460092254A3E44FDF78EFACD
:104FD00046F20840324638440346B4EC017AD3ED39
:104FE000007AAC4277EE877AE3EC017AD2ED007A70
:104FF000BAEC017A77EE877AE2EC017AEDD146F6E7
:10500000084547F608444FF40062E919FBF79EFD96
:10501000E11930464FF40062FBF798FDE8194FF4B0
:1050200000620021FBF7A8FEE0194FF400620021A6
:10503000FBF7A2FED2E681ED000AC2ED000A07B03E
:10504000BDEC048BBDE8F08F10FB0100F119760573
:105050003872030084720300D07203001C730300D3
:1050600004BC01082DE9F04305462DED048B83B007
:105070005AB30E4617460024DFF870830DE0CDEDDD
:10508000010A32680134736802EB090CA7424B44F1
:105090008CED000A019A1A6017D098F800104FEAB8
:1050A0008409D5E9002302EB840203EB840392ED2B
:1050B000000AD3ED000A0029E1D101AA6946AE48F1
:1050C000FFF73CFE9DED000ADBE7AC4BAC4C1B79D7
:1050D00022789A420ED0B7EE000A002BDFEDA97AB3
:1050E000A94807FE800A237004F008FB2178A7482E
:1050F000FEF7F8FE9FEDA36A2B68F0EE465A6A6849
:1051000003F14001F3EC017AB2EC017AF0EEE76AC8
:10511000994277EEC77AB0EEC77AF0EEE77A36EECC
:10512000877A75EEA75A36EE076AEBD1DFED987AEB
:10513000B4EEE76AF1EE10FA00F10D8185EE867AA1
:10514000DFED947A944B1978B4EEE77AF1EE10FA29
:10515000CCBF0122002291420DD0B4EEE77ADFED00
:10516000897AB7EE000A1A70F1EE10FA30FE270ABB
:105170008A4804F0C3FA0021894800F095FC012117
:105180008748B0EE409A00F08FFC02218448B0EED0
:10519000408A00F089FC03218148F0EE408A00F04B
:1051A00083FCF6EE006ADFED7F7A7F49B4EEE60A13
:1051B0007E4A68EE277A7E4B81ED009AF1EE10FA76
:1051C000C3ED008AC2ED007A40F1B48030EE007A7F
:1051D0009FED786AF3EE046A774E784D784BE7EEF0
:1051E000066A2B60C6ED006A764C45F6BF529FED0D
:1051F000766A94ED8C7AC4ED877A67EE877AD4ED7F
:10520000886A84ED869AF4EE686A87EE867AFCEE08
:10521000C77A17EE903A934228BF1346F1EE10FA80
:10522000C4F8143240F0A18096ED000A674884ED7E
:10523000890A16F09FF89FED660A644816F0FEF89A
:10524000B7EE000A614816F03FF994ED8A0A61480A
:1052500016F090F89FED5E0A5E4816F0EFF8B7EE94
:10526000000A5C4816F030F994ED890A5A4816F0A5
:1052700081F89FED570A584816F0E0F8B7EE000A9B
:10528000554816F021F994ED8A0A544816F072F840
:105290009FED4F0A514816F0D1F8B7EE000A4F487B
:1052A00016F012F92B6894ED890A4848C4F82832A0
:1052B00016F060F89FED460A444816F0BFF8B7EEC6
:1052C000000A424816F000F994ED8A0A414816F0A7
:1052D00051F89FED3F0A3F4816F0B0F8B7EE000ACC
:1052E0003C4816F0F1F894ED890A3B4816F042F874
:1052F0009FED370A384816F0A1F8B7EE000A364895
:1053000016F0E2F894ED8A0A344816F033F89FED6F
:10531000300A324816F092F8B7EE000A2F4816F01D
:10532000D3F82F4B1B68C4F82C3203B0BDEC048BB0
:10533000BDE8F08330EE667A9FED2A6ADFED226ADF
:10534000294B37EE077A1C4E1C4D3360E7EE066A98
:10535000C5ED006A48E7104B1A78002A3FF40BAFFE
:1053600000229FED080A1A7002E7A4F55C30C4ED34
:10537000888AFDF7C5FB57E7700C0024F00B00246A
:10538000D87F032400000000500C0024080A0024E9
:105390006F12833ACDCCCC3DF80B0024340C0024A2
:1053A000500A00240000FA436C0000246C0C002416
:1053B0008000002400007544840000247C00002448
:1053C00000401C46707C032400007A44A87E03241D
:1053D000F4FD343FF47E0324407F03248C7F0324B8
:1053E00088000024007094460000A041680000245A
:1053F00084B02DE9F04182B00125064604460DF146
:1054000024088572274688E80E00BDF84C3026F83F
:10541000083F304604F024FEBDF84E30A57127F851
:10542000043F384604F01CFE4146204606F08AFD43
:105430000021384604F0FEFE0A2006F0A1FF2946AE
:10544000384604F0F7FE0A2006F09AFFAE233046F5
:1054500000218DF8073004F0EDFE2A460DF107011A
:105460006423204606F0F6FDD523304600218DF852
:10547000073004F0DFFE2A460DF1070164232046C1
:1054800006F0E8FD8023304600218DF8073004F057
:10549000D1FE2A460DF107016423204606F0DAFD0D
:1054A000A823304600218DF8073004F0C3FE2A46B9
:1054B0000DF107016423204606F0CCFD3F23304662
:1054C00000218DF8073004F0B5FE2A460DF10701E2
:1054D0006423204606F0BEFDDA23304600218DF815
:1054E000073004F0A7FE2A460DF107016423204689
:1054F00006F0B0FD1223304600218DF8073004F08D
:1055000099FE2A460DF107016423204606F0A2FD0C
:105510000021D32330460F468DF8073004F08AFE71
:105520002A4664230DF10701204606F093FD394613
:1055300030468DF8077004F07DFE2A460DF1070114
:105540006423204606F086FD4023394630468DF818
:10555000073004F06FFE2A460DF107016423204650
:1055600006F078FDA623394630468DF8073004F062
:1055700061FE2A460DF107016423204606F06AFD0C
:10558000A423394630468DF8073004F053FE2A46EE
:105590000DF107016423204606F05CFD8D2339469A
:1055A00030468DF8073004F045FE2A460DF107011C
:1055B0006423204606F04EFD1423394630468DF80C
:1055C000073004F037FE2A460DF107016423204618
:1055D00006F040FDA123394630468DF8073004F02F
:1055E00029FE2A460DF107016423204606F032FD0C
:1055F000C823394630468DF8073004F01BFE2A4692
:105600000DF107016423204606F024FD812339466D
:1056100030468DF8073004F00DFE2A460DF10701E3
:105620006423204606F016FD8F23394630468DF858
:10563000073004F0FFFD2A460DF1070164232046E0
:1056400006F008FDD923394630468DF8073004F0BE
:10565000F1FD2A460DF107016423204606F0FAFC0D
:105660002523394630468DF8073004F0E3FD2A46FD
:105670000DF107016423204606F0ECFCDB233946DC
:1056800030468DF8073004F0D5FD2A460DF10701AC
:105690006423204606F0DEFC3423394630468DF87C
:1056A000073004F0C7FD2A460DF1070164232046A8
:1056B00006F0D0FCAF23394630468DF8073004F0B1
:1056C000B9FD64232A460DF10701204606F0C2FC0D
:1056D00002B0BDE8F04104B0704700BF2DE980483A
:1056E0000021B9B0AA484FF0080A00F04DFA162080
:1056F00002F004FDADF824009FEDA60A00220999EE
:105700004FF00209A4480DAD03F0D4FF172002F0BA
:10571000F5FC0022ADF8280017AE9FED9E0A174653
:105720000A990DF1B4089D480DF1C00B03F0C2FFBA
:105730000F2002F0E3FCADF82C009FED960A3A46EC
:105740000B99974803F0B6FF102002F0D7FCADF894
:1057500030009FED900A3A460C99924803F0AAFF58
:10576000092002F0CBFC03460A208F4CADF8343000
:1057700002F0C4FC03460B20ADF8363002F0BEFC4C
:10578000ADF83800504602F0B9FCADF83A0017A861
:10579000CDF870A0CDF88090CDE91D77FEF73EFAE8
:1057A000CDF858900F97CDF848A0CDE913770FCDDD
:1057B0000FC60FCD0FC695E8030022AD86E80300A3
:1057C0000C2002F09BFCADF884000D2002F096FC4A
:1057D000ADF8860022A8CDF89CA0CDF8AC90A946E3
:1057E000EA46CDE92877FEF719FA0DF15C0CC646BA
:1057F000BCE80F000FC5BCE80F000FC596E8070016
:1058000085E80700B9E80F00AEE80F00B9E80F001F
:10581000AEE80F0095E807008EE80700BBE80F0030
:10582000AAE80F009BE80F008AE80F005F4898E89D
:105830000E00FFF7DDFD5E48FEF712FA5C48FEF74A
:1058400073FA042015F063FE30AB309705463197AC
:10585000076020602F9793E80300CDE92D778DE84E
:105860000300284698E80E0004F01EF8206808B1EE
:1058700004F05EF84F4D464800F008F905F50E704B
:1058800085ED8C0A15F0EEFC95ED8C0A05F521707E
:1058900015F0E8FC95ED8C0A05F5347015F0E2FC86
:1058A00095ED8C0A05F5477015F0DCFC95ED890A3D
:1058B00005F50E7015F05EFD9FED3F0A05F50E70C3
:1058C00015F0BCFDB7EE000A05F50E7015F0FCFDF5
:1058D00095ED8A0A05F5217015F04CFD9FED360A0D
:1058E00005F5217015F0AAFDB7EE000A05F5217047
:1058F00015F0EAFD95ED890A05F5347015F03AFDCD
:105900009FED2D0A05F5347015F098FDB7EE000AED
:1059100005F5347015F0D8FD95ED8A0A05F5477048
:1059200015F028FD9FED240A05F5477015F086FD5A
:10593000B7EE000A05F5477015F0C6FD1F4914487B
:1059400000F046F91E49124800F09EF8206840B168
:1059500003F0EEFF206803F0E1FF2379834218BFD4
:1059600020710D4803F0DCFE0C4803F0D9FE0C4812
:1059700003F0D6FE0B4803F0D3FE054800F088F88C
:10598000034800F0AFF9012006F0FAFCDEE700BFA3
:10599000500A002400007A44FC0B0024180C002458
:1059A000500C0024340C0024F00B0024FC050024CF
:1059B000080A0024707C0324F4FD343F70000024A6
:1059C0006550000838B521480024214A2149046067
:1059D00044610462C463C0F89041A0F89441C0F8E7
:1059E00098411D4DC0E96044C0E9624415F086FD50
:1059F0001A4B1B481C601C7128602846144A194920
:105A0000AC6015F07BFD184C184B2146104A1D6008
:105A1000174815F073FD21460D4A164815F06EFD26
:105A200021460B4A144815F069FD2146134C084ADB
:105A3000134815F063FD2046FFF78AF82046044A14
:105A40001049BDE8384015F059BD00BF500A002488
:105A50000000002461240008F4050024F00B002459
:105A60000CBD0108652400084D240008080A002424
:105A7000FC0B0024180C0024500C0024700C002493
:105A8000340C00247124000802F04EBB02F050BB1D
:105A900038B500F1400400F580752046203403F04D
:105AA000B9FDAC42F9D138BD062928BF002100EB71
:105AB000411191ED130A704770B586B00D4B00F59A
:105AC00080750DF1080C06AE0FCB64468CE80F0014
:105AD0006378284614F8022B10358DF805308DF8C0
